:020000040800F2
:1000000068060020890100084D020008450200082A
:1000100049020008330200085502000800000000F1
:100020000000000000000000000000005102000875
:1000300037020008000000004F02000853020008C9
:100040009F0100089F0100089F0100089F01000810
:100050009F0100089F0100089F0100089F01000800
:100060009F0100089F0100089F0100089F010008F0
:100070009F0100089F0100089F0100089F010008E0
:100080009F0100089F0100089F0100089F010008D0
:100090009F0100089F0100089F0100089F010008C0
:1000A0009F0100089F0100089F0100089F010008B0
:1000B0009F0100089F0100089F0100089F010008A0
:1000C0009F0100089F0100089F0100089F01000890
:1000D0009F0100089F0100089F0100089F01000880
:1000E0009F0100089F0100089F01000800F002F82E
:1000F00000F03AF80AA090E8000C82448344AAF188
:100100000107DA4501D100F02FF8AFF2090EBAE885
:100110000F0013F0010F18BFFB1A43F0010318473B
:100120006401000084010000103A24BF78C878C13F
:10013000FAD8520724BF30C830C144BF04680C60ED
:10014000704700000023002400250026103A28BF35
:1001500078C1FBD8520728BF30C148BF0B60704739
:100160001FB51FBD10B510BD00F02DF81146FFF7EB
:10017000F7FF00F071F800F04BF803B4FFF7F2FF5F
:1001800003BC00F04FF8000008480047FEE7FEE718
:10019000FEE7FEE7FEE7FEE7FEE7FEE7FEE7FEE737
:1001A00003480449044A054B70470000ED0000086D
:1001B0006800002068060020680200206802002015
:1001C000704770477047754600F028F8AE46050046
:1001D0006946534620F00700854618B020B5FFF762
:1001E000DFFFBDE820404FF000064FF000074FF062
:1001F00000084FF0000B21F00701AC46ACE8C00945
:10020000ACE8C009ACE8C009ACE8C0098D4670474D
:100210000446AFF300802046FFF7AFFF0048704769
:100220000400002001491820ABBEFEE726000200B2
:10023000704700BFFEE77047002100E0491C814283
:10024000FCD3704700BFFEE700BFFEE77047704772
:100250007047704700BFFEE711E04FF47A70FFF778
:10026000EBFF07480068401C054908600846006825
:100270004CF25031884202D9002001490860ECE775
:1002800000000020A402000800000020040000007C
:1002900028010008A80200080400002064060000ED
:0802A000440100080000000009
:04000005080000ED02
:00000001FF
