:020000040800F2
:100000001818002089010008EB020008E30200082C
:10001000E7020008DD020008FF10000800000000F1
:10002000000000000000000000000000CB0F0008EE
:10003000E1020008000000000F020008F50F0008B0
:100040009F0100089F0100089F0100089F01000810
:100050009F0100089F0100089F0100089F01000800
:100060009F0100089F0100089F0100089F010008F0
:100070009F0100089F0100089F0100089F010008E0
:100080009F0100089F0100089F0100089F010008D0
:100090009F0100089F0100089F0100089F010008C0
:1000A0009F0100089F0100089F0100089F010008B0
:1000B0009F0100089F0100089F0100089F010008A0
:1000C0009F0100089F0100089F0100089F01000890
:1000D0009F010008111000089F0100089F010008FF
:1000E0009F0100089F0100089F01000800F002F82E
:1000F00000F03AF80AA090E8000C82448344AAF188
:100100000107DA4501D100F02FF8AFF2090EBAE885
:100110000F0013F0010F18BFFB1A43F0010318473B
:100120004415000064150000103A24BF78C878C157
:10013000FAD8520724BF30C830C144BF04680C60ED
:10014000704700000023002400250026103A28BF35
:1001500078C1FBD8520728BF30C148BF0B60704739
:100160001FB51FBD10B510BD00F089F81146FFF78F
:10017000F7FF01F08DF800F0A7F803B4FFF7F2FFE6
:1001800003BC00F0BEFF000008480047FEE7FEE7A2
:10019000FEE7FEE7FEE7FEE7FEE7FEE7FEE7FEE737
:1001A00003480449044A054B70470000ED0000086D
:1001B000181200201818002018140020181400200D
:1001C000EFF3108072B6704780F310887047204CB0
:1001D000204D25604FF0000484F309881E4C4FF039
:1001E000010525701D4C4FF08055256062B6FEE775
:1001F00030B41A4C4FF08055256030BC704730B495
:10020000164C4FF08055256030BC704700BF72B669
:10021000EFF3098028B1203880E8F00F1049096811
:10022000086000B50F4880475DF804EB0E480F49A1
:100230000A7802700A480E490A680260106890E85D
:10024000F00F203080F309884EF0040E62B670473C
:1002500020ED00E00000FFFF4200002004ED00E080
:1002600048000020BD0800083700002038000020AA
:1002700050000020704770477047704770477546C0
:1002800000F028F8AE4605006946534620F0070006
:10029000854618B020B5FFF783FFBDE820404FF03A
:1002A00000064FF000074FF000084FF0000B21F060
:1002B0000701AC46ACE8C009ACE8C009ACE8C0092D
:1002C000ACE8C0098D4670470446AFF30080204675
:1002D000FFF753FF00487047B811002000BFFEE74A
:1002E000704700BFFEE700BFFEE7704702490143C9
:1002F000024A1160704700000000FA050CED00E0B2
:1003000010B500F013F800F0E5FB00F00DFC00F074
:100310002DFC00F0B5FB00F087FB00F0C1FC00F005
:1003200065FC00F08BFC00F002F810BD70477047D0
:1003300006480078012808D105480078FF2804D233
:1003400003480078401C02490870704742000020B2
:100350003500002010B500241A480078012830D15B
:10036000FFF72EFF04461848007820B116480078A1
:10037000401E1549087014480078F8B913480078F1
:10038000E0B900F0EFFC12481249097850F821005A
:10039000114908600F4800781049097888420DD04B
:1003A0000D480068806B401C0B49096888630C4845
:1003B0000068401C0A490860FFF721FF2046FFF74C
:1003C00003FF10BD42000020350000203600002051
:1003D000880B00203800002050000020370000204B
:1003E0001C00002010B500240B480078012811D112
:1003F000FFF7E6FE04460948007840B9084800784F
:10040000FF2804D206480078401C054908702046A1
:10041000FFF7DAFE10BD000042000020350000208A
:100420003600002010B5002413480078012821D19F
:10043000FFF7C6FE044611480078C0B10F480078A7
:10044000401E0E4908700846007860B90C480078D4
:1004500028B92046FFF7B8FE00F04AFC0AE0204623
:10046000FFF7B2FE06E02046FFF7AEFE02E02046B0
:10047000FFF7AAFE10BD0000420000203600002059
:100480003500002010B50B48007890B900F06AFCE8
:10049000094800780949087009480749097850F85F
:1004A0002100084908600846006807490860FFF70E
:1004B0008EFE10BD420000203800002037000020D2
:1004C000880B0020500000204800002010B50024B8
:1004D000022000F0F5F9FFF773FE044600200B49F7
:1004E00008602046FFF770FE142000F0E9F9FFF7DE
:1004F00067FE044605480068054908600120054973
:1005000008702046FFF760FE10BD00004400002088
:100510002C00002034000020704700002DE9FE4F21
:1005200006460F4690461C464FF00009FFF748FE6E
:1005300081461F48007828B14846FFF745FE3C2019
:10054000BDE8FE8F1B4850F8240060BB012019490C
:1005500041F824004846FFF737FE0023424639465B
:10056000304600F009F982460020009001900346D1
:10057000024651460290204600F00AFC054635B975
:100580000D48007801280CD100F0B2FB09E0FFF71C
:1005900017FE81460020074941F824004846FFF72E
:1005A00013FE2846CCE74846FFF70EFE2820C7E793
:1005B00035000020880B0020420000202DE9F04F7C
:1005C00085B081468A4693461C46DDE90F78129D28
:1005D00000200390FFF7F4FD03902348007830B12A
:1005E0000398FFF7F1FD3C2005B0BDE8F08F1F48F0
:1005F00050F8240088BB01201C4941F824000398CE
:10060000FFF7E2FD2A464146384600F0D1FC2B4672
:100610005A465146484600F0AFF804901198CDE98B
:10062000008002953A4620460E9B049900F0B0FBEC
:10063000064636B90E48007801280CD100F058FB68
:1006400009E0FFF7BDFD03900020084941F82400B0
:100650000398FFF7B9FD3046C6E7FFE70398FFF7B9
:10066000B3FD2820C0E7000035000020880B0020E3
:1006700042000020704770472DE9F04106460F46C2
:1006800014464FF000081548007818B11220207069
:10069000BDE8F081FFF794FD8046FF2E03D110489E
:1006A000006890F832600F4850F826502DB9404647
:1006B000FFF78AFD43202070EAE7012D05D140466F
:1006C000FFF782FD43202070E2E7EF644046FFF72A
:1006D0007BFD0020207000BFDAE70000350000201D
:1006E00048000020880B0020704700002DE9F047EB
:1006F00007460D464FF0000A002028606860FFF7AB
:100700005FFD8246FF2F03D11948006890F83270D0
:10071000184850F827402CB95046FFF755FD4320A4
:10072000BDE8F087012C04D15046FFF74DFD432072
:10073000F6E7207C00F0010020B95046FFF744FDA9
:100740004520EDE70026D4F80C90D4F808805046F8
:10075000FFF73AFD00E0761C58F8041B0029FAD098
:10076000B0002860A9EB0600800068600020D7E791
:1007700048000020880B002070B5044610464FF05A
:1007800080750560051F28462C606FF00106051F67
:1007900028462E604FF01236051F28462E604FF077
:1007A0000336051F28462E604FF00236051F2846E7
:1007B0002E607610051F28462E60051F28462960EA
:1007C0004FF01136051F28462E604FF01036051FDA
:1007D00028462E604FF00936051F28462E604FF040
:1007E0000836051F28462E604FF00736051F28469D
:1007F0002E604FF00636051F28462E604FF0053656
:10080000051F28462E604FF00436051F28462E602F
:1008100070BD00002DE9F04105464FF00008FFF7DC
:10082000CFFC8046FF2D05D12048006890F832505B
:10083000012608E01D48006890F83200A84201D166
:10084000012600E000261A4850F825402CB9404601
:10085000FFF7BAFC4820BDE8F081012C04D14046E6
:10086000FFF7B2FC4320F6E794F834701148C05DFE
:1008700094F8351088430F49C8550846C05D30B913
:1008800094F836100C48007888430B49087094F8A7
:10089000300040F0080084F830004046FFF794FC38
:1008A000012E01D100F024FA0020D4E748000020F6
:1008B000880B00203A00002039000020704700001B
:1008C00070B5054600261748007800B170BD16487F
:1008D000007800B1FAE71DB3FFF772FC0646134833
:1008E000006890F834401248005D1049096891F89A
:1008F000351088430E4908550846005D40B90B483D
:10090000006890F836100B48007888430949087051
:1009100006480068C5623046FFF756FC00F0E8F96B
:1009200000BFD3E73500002036000020480000203B
:100930003A0000203900002070B5002600F072F85F
:10094000FFF73EFC064631480068401C2F4908600E
:100950003046FFF739FC2E480078012853D12D4846
:10096000007820B1012804D0022809D103E0012534
:100970000BE0002509E0012501202649087004E06C
:10098000012500202349087000BF00BF05B970BDD4
:100990002148046833E0FFF713FC0646E06A50B3D1
:1009A000E06A401EE062E06A28BB94F8300000F084
:1009B000370040B114F8300F00F0C800207001205B
:1009C0006070303C02E0002084F8310094F8300080
:1009D00000F0080078B93434A07810490978084349
:1009E0000E49087020780E49085C6178084314F8B5
:1009F00034190B4A505464693046FFF7E5FB94F80C
:100A000032003F28C7D100BFC1E7000060000020CE
:100A1000420000205800002054000020390000202F
:100A20003A000020704700002DE9F04150211148A4
:100A300000F02CF900250DE0681C86B20D4800EB93
:100A4000051400EB06170020207067600AA0E06024
:100A5000681C85B2042DEFD3064800EB0514002076
:100A60002070606004A0E060024804490860BDE8AE
:100A7000F0810000380700203F0000002400002023
:100A800070B5C821114800F001F900230FE0581C8F
:100A900085B203EB83000D4901EB800405EB850073
:100AA00001EB8006002020706660581C83B2092B81
:100AB000EDD303EB8300054901EB80040020207097
:100AC000606008460249086070BD000070060020A2
:100AD0002000002000200A4908600A4908700A49DD
:100AE00008700A4908700A4908700A4908600A49EA
:100AF00008600A4908600A4908600A490870704796
:100B00006000002035000020360000204300002057
:100B1000420000201C000020440000203000002083
:100B20002C0000203400002000210A4A117000200F
:100B300004E00021084A1154411CC8B20828F8D327
:100B40000021064A1170064A1170064A1160064AD1
:100B500011607047390000203A0000203700002063
:100B600038000020500000204800002070B54FF4ED
:100B70007C71194800F08AF84FF48071174800F032
:100B800085F8002413E0601CC5B2C4EBC40000EB80
:100B90004000114901EB8003C5EBC50000EB4000AC
:100BA00001EB80065E610EA0D864601CC4B20B2C01
:100BB000E9D3C4EBC40000EB4000074901EB80031C
:100BC0000020586106A0D864002006490860024849
:100BD0000549086070BD0000880C0020880B0020CB
:100BE0003F000000540000204C00002000B587B0FA
:100BF0000320002180220A4BCDE90132CDE9031008
:100C00004FF6FF703F23074A00900748FFF7D6FCD6
:100C100006AA06A13F20FFF72FFD07B000BD000088
:100C200088090020840B0020C50E000875432F4F53
:100C3000532D49492049646C6500000000B587B018
:100C40000320002180220A4BCDE90132CDE90310B7
:100C50004FF6FE703E23074A00900748FFF7AEFCB0
:100C600006AA06A13E20FFF707FD07B000BD000061
:100C70008807002084090020ED0E000875432F4FDF
:100C8000532D4949205374617400000004E0002290
:100C900000F8012B4A1E91B20029F8D170470000DC
:100CA0002DE9F04178211048FFF7F0FF00240DE016
:100CB000601C86B204EB44000B4901EBC00506EB57
:100CC000460001EBC0072F60601C84B2042CEFD3F8
:100CD00004EB4400044901EBC005002028600846ED
:100CE00002490860BDE8F081781000205C00002017
:100CF00010B50024FFF764FA044613480078F8B9E9
:100D000012480078E0B900F02DF81148114909782F
:100D100050F82100104908600E4800780F49097802
:100D200088420DD00C480068806B401C0A49096855
:100D300088630B480068401C09490860FFF758FAAF
:100D40002046FFF741FA10BD350000203600002094
:100D5000880B0020380000205000002037000020C1
:100D60001C0000200649074A1278885C0649095C85
:100D7000034A515C01EBC001044A11707047000046
:100D800062150008390000203A00002038000020D9
:100D90002DE9F84F05460F4690469946DDE90AAB26
:100DA00000200090FFF70CFA00903F480468002CE8
:100DB00074D0183454F8040C3B4908600098FFF7CD
:100DC00003FA44F8187CA5760020207660766061EE
:100DD00044F814BC44F80CAC44F8108C0C9824F87B
:100DE000080C24F8069C0020E077E810207705F036
:100DF0000700E076217F01208840A077E17E012076
:100E00008840607700206060E060A0602062A0629F
:100E10006062E062206325A06063183C002606E063
:100E2000002104F1500040F82610701CC6B2002EBC
:100E3000F6D02046FFF770FB2046FFF71BFCFFF7BC
:100E4000BFF900901A4840F825401A4800686061D0
:100E50000020A0611748006810B11648006884613E
:100E6000144804603434A0781349097808431249BF
:100E7000087020781149085C6178084314F8341927
:100E80000E4A50540E480078401C0D4908700098D6
:100E9000FFF79AF90020BDE8F88FFFE70098FFF709
:100EA00093F94220F7E700004C0000203F000000CB
:100EB000880B002054000020390000203A00002058
:100EC00043000020002400BF00BFFFF779F904466B
:100ED00005480068401C044908602046FFF774F983
:100EE000FFF7C9FBF1E7000044000020002400BF29
:100EF00002E02820FFF7E4FC194800780028F8D029
:100F0000184800686421B0FBF1F0164908600846F3
:100F1000006828B9002014490870FF20FFF77AFC08
:100F200000BFFFF74DF904461048006810490860FB
:100F300000200E4908602046FFF746F90C4800687B
:100F400008490968B0FBF1F0C0F164000649087077
:100F5000FFF7CAFB00F00EF81420FFF7B1FCE0E742
:100F6000340000202C000020280000204400002035
:100F7000300000207CB5002514E069462846FFF7C4
:100F8000B5FB064666B9094850F8254044B1012C26
:100F900006D0D4E9020100EB810060640198A064EE
:100FA000681CC5B23F2DE8D97CBD0000880B00202D
:100FB00002F0010343B102F002032BB102E0491E2B
:100FC000002308C00029FAD170477047042808D1CF
:100FD0004FF0E021096941F004014FF0E022116176
:100FE00007E04FF0E021096921F004014FF0E02211
:100FF0001161704710B505480078012805D1FFF749
:1010000097F9FFF799FCFFF7A5F910BD4200002002
:1010100010B5FFF78DF940F225511E4800F040F859
:1010200010B31C4800F066F8C4B21B48008800F4F6
:101030000040C8B91848008800F4804060B10A2C0C
:1010400003D000201449088020E01348008840F4B1
:1010500000401149088019E00D2C06D10E48008887
:1010600040F480400C49088010E00B480088C0F331
:101070000D000A490C5408480088401C06490880A5
:1010800008460088C72801DD00200880FFF762F9C4
:1010900010BD0000003801406C000020F01000205E
:1010A00070B50246002400230025002040F66A1691
:1010B000B14200D100BFC1F3421501F01F03012668
:1010C00006FA03F3012D02D19689334006E0022D82
:1010D00002D1168A334001E0968A33400C12012671
:1010E00006FA04F41688344013B10CB1012000E074
:1010F000002070BD01468888C0F30800704700BF1B
:10110000FEE7014600BF704710B56FF00400FFF71F
:101110005DFF104800681049B0FBF1F00F490870FE
:101120000C4800680C49B0FBF1F441F288304443AC
:1011300005200B4908804FF0E020006940F00200D4
:101140004FF0E021086108464461006940F0010069
:10115000086110BD0800002000127A006400002021
:101160006600002070B504460F480078A0B10F4813
:10117000007888B90E480088844206DB0C48008855
:1011800094FBF0F5284600F01DF80948008894FB10
:10119000F0F100FB114084B24FF47A7104FB01F0CE
:1011A00000F016F870BD000042000020350000205D
:1011B0006600002010B5FFF715F910BD10B5FFF758
:1011C00031F910BD10B504462046FFF779FB10BD7C
:1011D0002DE9F047074600264FF0E020D0F81490A4
:1011E0001148007807FB00F800BFFFF7E3FF4FF05E
:1011F000E020856911E04FF0E0208469AC420CD01A
:10120000AC4202D2281B064403E0A9EB04002844A8
:1012100006442546464500D300E0ECE700BFFFF753
:10122000CDFFBDE8F087000064000020002410E03E
:1012300008490948006800F071F807490860FEF79E
:10124000BFFF04462046FEF7BFFF4FF4FA70FFF7DA
:1012500089FFEDE70AD7233C0400002005E0502079
:10126000FFF780FF6420FFF77DFFF8E70CE00748F9
:101270000068401C054908604FF4FA70FFF772FFE0
:101280004FF4FA70FFF76EFFF1E700000000002056
:1012900010B5FFF739FF4FF4A060FFF727F8FFF70D
:1012A0002FF80A23044A00210448FFF737F9FFF713
:1012B000E9F8002010BD00006C020020C1120008F7
:1012C00070B50446002500BFFFF700F9FEF778FF70
:1012D000054607230B4A00210B48FFF71FF9062399
:1012E0000A4A00210A48FFF719F90523094A002193
:1012F0000948FFF713F90A20FFF78CFA2846FEF792
:1013000063FF70BD6C0300205D1200086C040020B8
:101310006D1200086C0600202D12000890EA010FE3
:1013200048BF81F0004100F1AE80421A3CBF801AF4
:1013300089184FEAD0524FF07F4C1CEA410FA2EBC4
:10134000D15318BF9CEA026F00F03B804FF0004C75
:101350004CEA00204CEA012121FA03FC10EB0C0CB2
:101360001ED202F1FF325FEA1C2040EBC25038BFB0
:1013700070471CF07F0F4FEA400C18BFBCF17F4F45
:1013800038BF7047C3F12003994008BF20F0010027
:10139000BCF17F4F38BF7047A0F1C04000F066B885
:1013A0004FEA3C00000A40EBC25028BF1CF0FF0F80
:1013B0004FEA400CE6D018BFBCF17F4F38BF7047F2
:1013C000EAE79CEA026F05D010EA5C0F08BF00F064
:1013D0000040704710B500F003F800BF64FBBE3E4C
:1013E0000EF1020E2EF0030E5EF8044B244204D4DC
:1013F0004FEA4102B2F17F4F11D84FEA4003B3F1F7
:101400007F4F0CD80ED14FEAD07CB2F17F4F0CEB5E
:101410004C0C0CF1020C08BF4CEBD17C04E04FF0FB
:10142000080C01E04FEAD17C0CEB4C0324FA03F4E6
:1014300004F00704B4F1040C06D20EEB840CBDE8F2
:1014400010404CF0010C6047DFE80CF00708020286
:101450004FF00040A0F5800010BD0846420018BFC4
:10146000D2F1807288BF00F0004010BDFF2141EA38
:10147000D050C0057047000090EA010F48BF81F0CE
:1014800000413FF552AF421A04D882F00042A0EB6F
:10149000020011444FEAD0524FF07F4C1CEA410F3A
:1014A000A2EBD15318BF9CEA026F4AD04FF0004C18
:1014B0004CEA00204CEA012121FA03FCB0EB0C0CB1
:1014C0000FD412F0FE0F36D05FEA4C001DD500128B
:1014D00040EBC25038BF70471CF03F0F18BF704739
:1014E0000BE0A2F101025FEA1C2040EBC25038BFC2
:1014F00070471CF07F0F18BF7047C3F1200399405D
:1015000014BF401E20F00100704780084FEA1223EC
:1015100008BF7047B0FA80FCA2EB0C02CCF1280C9B
:1015200060FA0CF093EA122F04BF00EBC250704730
:101530004FEAC3707047130A5FEADC1008BF7047B8
:10154000F6E79CEA026F04D010EA5C0F08BF0020A7
:10155000704710B5FFF744FF40DFF63E81F00040D2
:1015600070470000010002000100030001000200BA
:10157000010004000100020001000300010002005C
:10158000010005000100020001000300010002004B
:10159000010004000100020001000300010002003C
:1015A000010006000100020001000300010002002A
:1015B000010004000100020001000300010002001C
:1015C000010005000100020001000300010002000B
:1015D00001000400010002000100030001000200FC
:1015E00001000700010002000100030001000200E9
:1015F00001000400010002000100030001000200DC
:1016000001000500010002000100030001000200CA
:1016100001000400010002000100030001000200BB
:1016200001000600010002000100030001000200A9
:10163000010004000100020001000300010002009B
:10164000010005000100020001000300010002008A
:10165000010004000100020001000300010002007B
:101660000100000084160008000000207000000047
:1016700028010008F416000870000020A8170000D8
:1016800044010008000000000AD7233C00A24A04DD
:101690000000000000000000010203040607080922
:1016A000000000000000000000000000000000003A
:1016B000000000000000000000000000000000002A
:1016C000000000000000000000000000000000001A
:1016D000000000000000000000000000000000000A
:1016E00000000000000000000000000000000000FA
:0416F00000000000F6
:04000005080000ED02
:00000001FF
